:020000040800F2
:100000000000022041A20008DD530008E35300086D
:10001000E9530008EF530008F55300080000000002
:10002000000000000000000000000000FB5300087A
:100030000954000800000000175400082554000867
:1000400091A2000891A2000891A2000891A20008C4
:1000500091A2000891A2000891A2000891A20008B4
:10006000315400083F54000891A2000891A20008F2
:1000700091A2000891A2000891A200084D54000826
:10008000615400087554000891A2000800000000A7
:10009000000000000000000000000000895400087B
:1000A0009954000891A20008AD54000891A20008DC
:1000B00091A20008C1540008D554000891A200087C
:1000C00091A2000891A2000891A2000891A2000844
:1000D00091A2000891A20008E95400080000000065
:1000E000FD54000891A2000891A200080000000041
:1000F00000000000000000000000000091A20008C5
:100100000000000091A2000891A2000891A200083E
:1001100000000000000000000000000000000000DF
:1001200091A2000891A2000891A2000891A20008E3
:1001300091A2000800000000000000000000000084
:1001400000000000000000000000000091A2000874
:1001500091A2000891A2000891A2000891A20008B3
:100160001D55000891A200080000000000000000DA
:10017000000000000000000000000000000000007F
:100180000000000091A20008000000000000000034
:0801900091A2000891A20008F1
:1001A00010B5054C237833B9044B13B10448AFF3B1
:1001B00000800123237010BD001600200000000005
:1001C000244B010808B5034B1BB103490348AFF3A7
:1001D000008008BD0000000004160020244B010828
:1001E000034613F8012B002AFBD1181A0138704777
:1001F00010F8012B11F8013B012A28BF9A42F7D0D1
:10020000D01A70470000000000000000000000004D
:1002100001F0FF01102A2BDB10F0070F08D010F8B7
:10022000013B013A8B422DD010F0070F42B3F6D1BB
:10023000F0B441EA012141EA014122F007047FF0D4
:1002400000070023F0E80256083C85EA010586EA2B
:10025000010685FA47F5A3FA87F586FA47F6A5FA67
:1002600087F68EB9EED1F0BC01F0FF0102F0070273
:1002700032B110F8013B013A83EA010313B1F8D11E
:100280000020704701387047002D06BF35460338FF
:10029000073815F0010F07D1013015F4807F02BF38
:1002A000013015F4C03F0130F0BC0138704700BF89
:1002B00081F0004102E000BF83F0004330B54FEA17
:1002C00041044FEA430594EA050F08BF90EA020F84
:1002D0001FBF54EA000C55EA020C7FEA645C7FEA17
:1002E000655C00F0E2804FEA5454D4EB5555B8BF3A
:1002F0006D420CDD2C4480EA020281EA030382EAAB
:10030000000083EA010180EA020281EA0303362D3C
:1003100088BF30BD11F0004F4FEA01314FF4801C0F
:100320004CEA113102D0404261EB410113F0004F21
:100330004FEA03334CEA133302D0524263EB4303D8
:1003400094EA050F00F0A780A4F10104D5F1200E76
:100350000DDB02FA0EFC22FA05F2801841F10001D1
:1003600003FA0EF2801843FA05F359410EE0A5F1A5
:1003700020050EF1200E012A03FA0EFC28BF4CF0D6
:10038000020C43FA05F3C01851EBE37101F000458C
:1003900007D54FF0000EDCF1000C7EEB00006EEB99
:1003A0000101B1F5801F1BD3B1F5001F0CD3490823
:1003B0005FEA30004FEA3C0C04F101044FEA44527A
:1003C00012F5800F80F09A80BCF1004F08BF5FEA01
:1003D000500C50F1000041EB045141EA050130BDE1
:1003E0005FEA4C0C404141EB0101013C28BFB1F5F3
:1003F000801FE9D291F0000F04BF01460020B1FA3E
:1004000081F308BF2033A3F10B03B3F120020CDA10
:100410000C3208DD02F1140CC2F10C0201FA0CF0EE
:1004200021FA02F10CE002F11402D8BFC2F1200C53
:1004300001FA02F120FA0CFCDCBF41EA0C01904009
:10044000E41AA2BF01EB0451294330BD6FEA040452
:100450001F3C1CDA0C340EDC04F11404C4F120023D
:1004600020FA04F001FA02F340EA030021FA04F34F
:1004700045EA030130BDC4F10C04C4F1200220FAA6
:1004800002F001FA04F340EA0300294630BD21FAE4
:1004900004F0294630BD94F0000F83F4801306BFAA
:1004A00081F480110134013D4EE77FEA645C18BF9E
:1004B0007FEA655C29D094EA050F08BF90EA020F35
:1004C00005D054EA000C04BF1946104630BD91EA2D
:1004D000030F1EBF0021002030BD5FEA545C05D130
:1004E0004000494128BF41F0004130BD14F580046F
:1004F0003CBF01F5801130BD01F0004545F0FE41E3
:1005000041F470014FF0000030BD7FEA645C1ABF17
:10051000194610467FEA655C1CBF0B46024650EA4E
:10052000013406BF52EA033591EA030F41F400217A
:1005300030BD00BF90F0000F04BF0021704730B500
:100540004FF4806404F132044FF000054FF00001D5
:1005500050E700BF90F0000F04BF0021704730B596
:100560004FF4806404F1320410F0004548BF40426B
:100570004FF000013EE700BF42004FEAE2014FEAC0
:1005800031014FEA02701FBF12F07F4393F07F4F9B
:1005900081F06051704732F07F4208BF704793F09E
:1005A0007F4F04BF41F40021704730B54FF46074B1
:1005B00001F0004521F000411CE700BF50EA0102B4
:1005C00008BF704730B54FF000050AE050EA01025D
:1005D00008BF704730B511F0004502D5404261EBCD
:1005E00041014FF4806404F132045FEA915C3FF40E
:1005F000D8AE4FF003025FEADC0C18BF03325FEAAB
:10060000DC0C18BF033202EBDC02C2F1200300FA5B
:1006100003FC20FA02F001FA03FE40EA0E0021FA80
:1006200002F11444BDE600BF70B54FF0FF0C4CF46E
:10063000E06C1CEA11541DBF1CEA135594EA0C0F20
:1006400095EA0C0F00F0DEF82C4481EA030621EA5B
:100650004C5123EA4C5350EA013518BF52EA033596
:1006600041F4801143F4801338D0A0FB02CE4FF048
:100670000005E1FB02E506F00042E0FB03E54FF078
:100680000006E1FB03569CF0000F18BF4EF0010E70
:10069000A4F1FF04B6F5007F64F5407404D25FEA6C
:1006A0004E0E6D4146EB060642EAC62141EA55511F
:1006B0004FEAC52040EA5E504FEACE2EB4F1FD0C61
:1006C00088BFBCF5E06F1ED8BEF1004F08BF5FEADF
:1006D000500E50F1000041EB045170BD06F0004691
:1006E00046EA010140EA020081EA0301B4EB5C043E
:1006F000C2BFD4EB0C0541EA045170BD41F4801136
:100700004FF0000E013C00F3AB8014F1360FDEBF5A
:10071000002001F0004170BDC4F10004203C35DA36
:100720000C341BDC04F11404C4F1200500FA05F3B9
:1007300020FA04F001FA05F240EA020001F000425A
:1007400021F0004110EBD37021FA04F642EB0601D0
:100750005EEA430E08BF20EAD37070BDC4F10C04FA
:10076000C4F1200500FA04F320FA05F001FA04F2BE
:1007700040EA020001F0004110EBD37041F10001AA
:100780005EEA430E08BF20EAD37070BDC4F12005B5
:1007900000FA05F24EEA020E20FA04F301FA05F21D
:1007A00043EA020321FA04F001F0004121FA04F2C5
:1007B00020EA020000EBD3705EEA430E08BF20EA95
:1007C000D37070BD94F0000F0FD101F000464000CF
:1007D00041EB010111F4801F08BF013CF7D041EA51
:1007E000060195F0000F18BF704703F00046520055
:1007F00043EB030313F4801F08BF013DF7D043EA26
:100800000603704794EA0C0F0CEA135518BF95EADB
:100810000C0F0CD050EA410618BF52EA4306D1D162
:1008200081EA030101F000414FF0000070BD50EA81
:10083000410606BF1046194652EA430619D094EA0B
:100840000C0F02D150EA013613D195EA0C0F05D1F5
:1008500052EA03361CBF104619460AD181EA030149
:1008600001F0004141F0FE4141F470014FF0000001
:1008700070BD41F0FE4141F4780170BD70B54FF09C
:10088000FF0C4CF4E06C1CEA11541DBF1CEA13551C
:1008900094EA0C0F95EA0C0F00F0A7F8A4EB0504FE
:1008A00081EA030E52EA03354FEA013100F08880F5
:1008B0004FEA03334FF0805545EA131343EA1263BE
:1008C0004FEA022245EA111545EA10654FEA002673
:1008D0000EF000419D4208BF964244F1FD0404F52C
:1008E000407402D25B084FEA3202B61A65EB030588
:1008F0005B084FEA32024FF480104FF4002CB6EB45
:10090000020E75EB030E22BFB61A754640EA0C00C4
:100910005B084FEA3202B6EB020E75EB030E22BF04
:10092000B61A754640EA5C005B084FEA3202B6EB45
:10093000020E75EB030E22BFB61A754640EA9C0004
:100940005B084FEA3202B6EB020E75EB030E22BFD4
:10095000B61A754640EADC0055EA060E18D04FEA92
:10096000051545EA16754FEA06164FEAC30343EA32
:1009700052734FEAC2025FEA1C1CC0D111F4801FFF
:100980000BD141EA00014FF000004FF0004CB6E7F8
:1009900011F4801F04BF01430020B4F1FD0C88BF97
:1009A000BCF5E06F3FF6AFAEB5EB030C04BFB6EBA2
:1009B000020C5FEA500C50F1000041EB045170BD95
:1009C0000EF0004E4EEA113114EB5C04C2BFD4EBC2
:1009D0000C0541EA045170BD41F480114FF0000E46
:1009E000013C90E645EA060E8DE60CEA135594EAC2
:1009F0000C0F08BF95EA0C0F3FF43BAF94EA0C0FC5
:100A00000AD150EA01347FF434AF95EA0C0F7FF439
:100A100025AF104619462CE795EA0C0F06D152EA8D
:100A200003353FF4FDAE1046194622E750EA410671
:100A300018BF52EA43067FF4C5AE50EA41047FF482
:100A40000DAF52EA43057FF4EBAE12E74FF0FF3CE7
:100A500006E000BF4FF0010C02E000BF4FF0010CB8
:100A60004DF804CD4FEA410C7FEA6C5C4FEA430C31
:100A700018BF7FEA6C5C1BD001B050EA410C0CBF80
:100A800052EA430C91EA030F02BF90EA020F0020E2
:100A9000704710F1000F91EA030F58BF994208BF49
:100AA00090422CBFD8176FEAE37040F00100704706
:100AB0004FEA410C7FEA6C5C02D150EA013C07D15D
:100AC0004FEA430C7FEA6C5CD6D152EA033CD3D0A8
:100AD0005DF8040B704700BF8446104662468C46A2
:100AE0001946634600E000BF01B5FFF7B7FF0028D5
:100AF00048BF10F1000F01BD4DF808EDFFF7F4FFFE
:100B00000CBF012000205DF808FB00BF4DF808ED88
:100B1000FFF7EAFF34BF012000205DF808FB00BFAB
:100B20004DF808EDFFF7E0FF94BF012000205DF8CD
:100B300008FB00BF4DF808EDFFF7CEFF94BF012082
:100B400000205DF808FB00BF4DF808EDFFF7C4FF7B
:100B500034BF012000205DF808FB00BF4FEA4102CE
:100B600012F5001215D211D56FF47873B3EB6252FF
:100B700012D94FEAC12343F0004343EA505311F026
:100B8000004F23FA02F018BF404270474FF00000B8
:100B9000704750EA013005D111F0004008BF6FF0F6
:100BA000004070474FF00000704700BF4FEA41021D
:100BB000B2F1E04324BFB3F5001CDCF1FE5C0DD9BB
:100BC00001F0004C4FEAC0024CEA5070B2F1004F05
:100BD00040EB830008BF20F00100704711F0804F08
:100BE00021D113F13872BCBF01F00040704741F4CD
:100BF00080114FEA5252C2F11802C2F1200C10FAD1
:100C00000CF320FA02F018BF40F001004FEAC123B4
:100C10004FEAD32303FA0CFC40EA0C0023FA02F358
:100C20004FEA4303CCE77FEA625307D150EA01332E
:100C30001EBF4FF0FE4040F44000704701F00040FE
:100C400040F0FE4040F40000704700BF7BB972B92D
:100C50000029BEBF00204FF0004106E008BF002879
:100C60001CBF6FF000414FF0FF3000F0BFB9ADF195
:100C7000080C6DE904CE002909DB002B1ADB00F01B
:100C80004DF8DDF804E0DDE9022304B0704740428E
:100C900061EB4101002B1BDB00F040F8DDF804E0C4
:100CA000DDE9022304B0404261EB4101524263EBB3
:100CB00043037047524263EB430300F02FF8DDF823
:100CC00004E0DDE9022304B0404261EB41017047DA
:100CD000524263EB430300F021F8DDF804E0DDE964
:100CE000022304B0524263EB4303704753B94AB93D
:100CF000002908BF00281CBF4FF0FF314FF0FF3024
:100D000000F074B9ADF1080C6DE904CE00F006F8FE
:100D1000DDF804E0DDE9022304B070472DE9F04777
:100D2000089D04468E46002B4DD18A42944669D9CF
:100D3000B2FA82F252B101FA02F3C2F1200120FAB2
:100D400001F10CFA02FC41EA030E94404FEA1C4800
:100D5000210CBEFBF8F61FFA8CF708FB16E341EAFC
:100D6000034306FB07F199420AD91CEB030306F182
:100D7000FF3080F01F81994240F21C81023E6344A3
:100D80005B1AA4B2B3FBF8F008FB103344EA034447
:100D900000FB07F7A7420AD91CEB040400F1FF335C
:100DA00080F00A81A74240F207816444023840EA99
:100DB0000640E41B00261DB1D4400023C5E90043D2
:100DC0003146BDE8F0878B4209D9002D00F0EF8055
:100DD0000026C5E9000130463146BDE8F087B3FA88
:100DE00083F6002E4AD18B4202D3824200F2F98070
:100DF000841A61EB030301209E46002DE0D0C5E973
:100E0000004EDDE702B9FFDEB2FA82F2002A40F0BE
:100E10009280A1EB0C014FEA1C471FFA8CFE0126C1
:100E2000200CB1FBF7F307FB131140EA01410EFB65
:100E300003F0884208D91CEB010103F1FF3802D20C
:100E4000884200F2CB804346091AA4B2B1FBF7F006
:100E500007FB101144EA01440EFB00FEA64508D929
:100E60001CEB040400F1FF3102D2A64500F2BB8066
:100E70000846A4EB0E0440EA03409CE7C6F12007B5
:100E8000B34022FA07FC4CEA030C20FA07F401FAFB
:100E900006F31C43F9404FEA1C4900FA06F3B1FB84
:100EA000F9F8200C1FFA8CFE09FB181140EA0141E9
:100EB00008FB0EF0884202FA06F20BD91CEB010186
:100EC00008F1FF3A80F08880884240F28580A8F1DE
:100ED00002086144091AA4B2B1FBF9F009FB101130
:100EE00044EA014100FB0EFE8E4508D91CEB0101CE
:100EF00000F1FF346CD28E456AD90238614440EA71
:100F00000840A0FB0294A1EB0E01A142C846A646F0
:100F100056D353D05DB1B3EB080261EB0E0101FA79
:100F200007F722FA06F3F1401F43C5E900710026D6
:100F30003146BDE8F087C2F12003D8400CFA02FC2C
:100F400021FA03F3914001434FEA1C471FFA8CFE3C
:100F5000B3FBF7F007FB10360B0C43EA064300FB2C
:100F60000EF69E4204FA02F408D91CEB030300F1CA
:100F7000FF382FD29E422DD9023863449B1B89B281
:100F8000B3FBF7F607FB163341EA034106FB0EF30A
:100F90008B4208D91CEB010106F1FF3816D28B42B7
:100FA00014D9023E6144C91A46EA004638E72E4683
:100FB000284605E70646E3E61846F8E64B45A9D27B
:100FC000B9EB020864EB0C0E0138A3E74646EAE7EA
:100FD000204694E74046D1E7D0467BE7023B614498
:100FE00032E7304609E76444023842E7704700BF01
:100FF00080B485B000AFF8607A601A460B46FB7289
:1010000013463B81FB7A062B02D8FB7A002B01D1D9
:10101000002309E0FB687A685A60FB683A891A8104
:10102000FB6810221A70012318461437BD465DF87C
:10103000047B704780B582B000AF78604FF4004306
:10104000234A01217868FFF7D3FF0346002B3AD0EB
:101050007B6803F1100080231E4A0221FFF7C8FFBE
:101060000346002B2FD07B6803F1200004231A4A8B
:101070000321FFF7BDFF0346002B24D07B6803F15B
:1010800030004FF48063144A0421FFF7B1FF034698
:10109000002B18D07B6803F140004FF480530E4AB8
:1010A0000521FFF7A5FF0346002B0CD07B6803F159
:1010B00050000823084A0621FFF79AFF0346002B39
:1010C00001D0012300E0002318460837BD4680BD4B
:1010D00000000240000402400008024080B586B0D3
:1010E00000AF0346B9607A60FB73A223FB757B688F
:1010F0001B78103B042B00F2B28001A252F823F0BF
:10110000151100085F1200084D110008B111000808
:1011100019120008BB681B78002B00F0A4807B68C4
:101120005A687B681B891946104609F0FBFF034685
:10113000002B40F098807B6812221A7009F010F999
:10114000034603F114027B68DA608CE07B685A681E
:101150007B681B891946104609F0E4FF0346002B03
:1011600010D109F0FDF802467B68DB689A4209D984
:101170007B6813221A7009F0F3F8034603F1B402F6
:101180007B68DA607B685A687B681B891946104661
:1011900009F0C8FF0346012B67D109F0E1F80246C8
:1011A0007B68DB689A4260D87B6810221A705CE02A
:1011B0007B685A687B681B891946104609F0B2FFA4
:1011C0000346012B0BD109F0CBF802467B68DB68A4
:1011D0009A4204D87B6810221A70A023FB757B68A2
:1011E0005A687B681B891946104609F09BFF034625
:1011F000002B3CD109F0B4F802467B68DB689A42C8
:1012000035D97B6814221A7009F0AAF8034603F551
:10121000FA727B68DA602AE07B685A687B681B890F
:101220001946104609F07EFF0346002B08D109F04D
:1012300097F802467B68DB689A4201D9A123FB75C7
:101240007B685A687B681B891946104609F06AFF5B
:101250000346012B0DD17B6810221A7009E07B68D0
:1012600010221A7006E000BF04E000BF02E000BFD9
:1012700000E000BFBB6800221A70FB7D18461837DB
:10128000BD4680BD80B400AF054B064A5A60044B92
:10129000054A5A6000BFBD465DF8047B704700BF39
:1012A000003C024023016745AB89EFCD80B485B097
:1012B00000AF78600023FB737B68B3F1006F06D347
:1012C0007B682C4A934202D80023FB734BE07B6877
:1012D000294A934206D37B68284A934202D80123C5
:1012E000FB7340E07B68264A934206D37B68254A1D
:1012F000934202D80223FB7335E07B68224A934273
:1013000006D37B68214A934202D20323FB732AE06F
:101310007B681E4A934206D97B681D4A934202D2DB
:101320000423FB731FE07B68194A934206D97B684C
:10133000184A934202D20523FB7314E07B68154AD6
:10134000934206D97B68144A934202D20623FB7368
:1013500009E07B68104A934205D97B680F4A9342A3
:1013600001D20723FB73FB7B18461437BD465DF89B
:10137000047B7047FE3F000800400008FE7F000825
:1013800000800008FEBF000800C00008FFFF000842
:10139000FFFF0108FFFF0308FFFF0508FFFF070825
:1013A00080B584B000AF786044F62063FB6007E04E
:1013B000FB68013BFB60FB68002B01D1002364E06C
:1013C000344BDB6803F48033B3F5803F02D1FB6814
:1013D000002BEDD12F4B1B6903F00043B3F1004FFD
:1013E00001D1FFF74FFF2B4B1B692A4A43F40073CF
:1013F0001361284B1B69274A43F002031361786885
:10140000FFF754FF0346DA00224B1B691146214ABD
:101410000B4313611F4B1B691E4A43F48033136156
:1014200044F62063FB6007E0FB68013BFB60FB6860
:10143000002B01D1002328E0164BDB6803F4803336
:10144000B3F5803F02D1FB68002BEDD1114BDB6877
:1014500003F00103002B05D00E4BDB680D4A23F08F
:101460000103D3600B4B1B690A4A03F002031361AB
:10147000084B1B69074A03F480331361054B1B6952
:10148000044A43F000431361012318461037BD4658
:1014900080BD00BF003C024080B586B000AFF86060
:1014A000B9607A6000237B6144F620633B61BB68CE
:1014B000002B02D07B68002B09D100235DE03B6943
:1014C000013B3B613B69002B01D1002355E02D4BD3
:1014D000DB6803F48033B3F5803F02D13B69002B16
:1014E000EDD1284B1B6903F00043B3F1004F01D14C
:1014F000FFF7C8FE234B1B69224A43F400731361B4
:10150000204B1B691F4A43F00103136100237B61D9
:101510000CE07B699B00BA6813447A699100FA6811
:101520000A441B6813607B6901337B617A697B68BD
:101530009A42EED344F620633B6107E03B69013BEE
:101540003B613B69002B01D1002316E00D4BDB68AA
:1015500003F48033B3F5803F02D13B69002BEDD11A
:10156000084B1B69074A03F001031361054B1B6914
:10157000044A43F000431361012318461837BD465F
:1015800080BD00BF003C024080B487B000AFF8606F
:10159000B9607A6000237B61BB68002B02D07B6856
:1015A000002B01D1002315E000237B610DE07B6956
:1015B0009A00FB68134419467B699B00BA68134480
:1015C0000A681A607B6901337B617A697B689A4299
:1015D000EDD3012318461C37BD465DF8047B7047E8
:1015E00080B582B000AF78600B467B807B8819465F
:1015F000786809F097FD0346012B0CBF01230023F7
:10160000DBB218460837BD4680BD000080B582B009
:1016100000AF0346FB71FB7999B2642305220648AB
:101620000AF078FB0346012B14BF01230023DBB231
:1016300018460837BD4680BD683A002080B586B0A0
:1016400004AF3A601A460346FB710B46BB71134662
:10165000BB8010480AF051FE0346242B01D1002321
:1016600013E0FB7999B2BB799AB264230293BB88E9
:1016700001933B6800930123064809F0C7FE034627
:10168000012B01D1002300E0012318460837BD4695
:1016900080BD00BF683A002080B586B004AF3A60D4
:1016A0001A460346FB710B46BB711346BB801048BC
:1016B0000AF023FE0346242B01D1002313E0FB791B
:1016C00099B2BB799AB264230293BB8801933B68B9
:1016D00000930123064809F093FF0346002B01D035
:1016E000002300E0012318460837BD4680BD00BF37
:1016F000683A002080B582B000AF0346FB71FB79E9
:1017000099B26423052206480AF004FB0346012B24
:1017100014BF01230023DBB218460837BD4680BD45
:10172000BC3A002080B500AF05480AF0E6FD03464C
:10173000242B14BF01230023DBB2184680BD00BF59
:10174000BC3A002080B586B004AF3A601A46034622
:10175000FB710B46BB711346BB8010480AF0CDFDF0
:101760000346242B01D1002313E0FB7999B2BB7906
:101770009AB264230293BB8801933B6800930123D0
:10178000064809F03DFF0346002B01D0002300E08E
:10179000012318460837BD4680BD00BFBC3A002073
:1017A00080B586B002AF3A601A460346FB710B461D
:1017B000BB711346BB804CF25033FB8118480AF0D2
:1017C0009CFD0346242B01D1002324E0FB7999B230
:1017D000BB799AB2BB8801933B6800930123104800
:1017E0000AF034F90346012B0AD1002313E00C4818
:1017F0000AF083FD0346202B06D0FB89013BFB81C9
:10180000FB89002BF3D100E000BFFB89002B14BF44
:1018100001230023DBB218461037BD4680BD00BF50
:10182000BC3A002080B582B000AF78607B681B684E
:101830000D4A934207D10D4B1B68002B03D00B4B75
:101840001B68786898477B681B68094A934207D1F0
:10185000084B1B68002B03D0064B1B687868984721
:1018600000BF0837BD4680BD005400401C16002054
:10187000005C00402416002080B582B000AF786084
:101880007B681B680D4A934207D10D4B1B68002BE8
:1018900003D00B4B1B68786898477B681B68094A24
:1018A000934207D1084B1B68002B03D0064B1B68E3
:1018B0007868984700BF0837BD4680BD0054004097
:1018C00020160020005C00402816002080B500AFE4
:1018D00005480DF061F80346002B01D0002300E01D
:1018E0000123184680BD00BF703B002080B500AFCB
:1018F00000210C480DF00CF90346002B0DD10421FA
:1019000008480DF005F90346002B06D108210548CB
:101910000DF0FEF80346002B01D0002300E0012368
:10192000184680BD703B002080B483B000AF786063
:1019300039607B68002B04D10F4B1B683A685A63EF
:1019400013E07B68042B04D10B4B1A683B6893634C
:101950000BE07B68082B04D1074B1A683B68D36304
:1019600003E0054B1A683B68136400BF0C37BD46A3
:101970005DF8047B704700BF703B002080B500AF6E
:1019800005480DF009F80346002B01D0002300E0C4
:101990000123184680BD00BFB83B002080B500AFD2
:1019A000002105480DF0B4F80346002B01D00023B8
:1019B00000E00123184680BDB83B002080B483B00E
:1019C00000AF786039607B68002B04D10F4B1B6837
:1019D0003A685A6313E07B68042B04D10B4B1A68F6
:1019E0003B6893630BE07B68082B04D1074B1A68B4
:1019F0003B68D36303E0054B1A683B68136400BF80
:101A00000C37BD465DF8047B704700BFB83B002033
:101A100080B500AF05480CF0BFFF0346002B01D096
:101A2000002300E00123184680BD00BF483C002091
:101A300080B582B000AF78607B681A68124B1B6873
:101A40009A4202D100F028F819E07B681A680F4B1F
:101A50001B689A4202D101F0AFF910E07B681A6866
:101A60000B4B1B689A4202D100F038FB07E07B6801
:101A70001A68084B1B689A4201D108F01BFA00BF94
:101A80000837BD4680BD00BF003C0020703B0020F1
:101A9000B83B0020483C002080B400AF00BFBD46EA
:101AA0005DF8047B704780B483B000AF7860396024
:101AB0007B681B683A689A6200BF0C37BD465DF8C8
:101AC000047B704780B483B000AF786039607B6876
:101AD0001B683A68DA627B683A68DA6000BF0C37E4
:101AE000BD465DF8047B704780B582B000AF78607A
:101AF000786808F041FC00BF0837BD4680BD000093
:101B000080B500AF4FF4FA620249034803F0E8FDE4
:101B100000BF80BD441600202C16002080B582B086
:101B200000AF786039603868FEF75AFB03469AB216
:101B30004FF47A73396878680DF0EFFE00BF08370C
:101B4000BD4680BD80B584B000AFF860B960134673
:101B5000FB800A4B0A4A1A600A4B0B4A1A60FB8840
:101B60001A46B968F8680DF06AFF0346002B01D0E9
:101B700003F090F900BF1037BD4680BD84350020CA
:101B8000E425002088350020B42D002080B584B0E5
:101B900000AF78600B467B803E4B1B789BB27A8807
:101BA0009A426FD03B4B1B789BB27A889A421ED9DF
:101BB0007B88384A12789B1A1A46374B1A600023E2
:101BC000FB730EE0334B1B781A46FB7B1A44334BF6
:101BD0001968FB7B0B4432498A5C1A70FB7B01332A
:101BE000FB73FA7B2C4B1B689A42EBD338E0294BF2
:101BF0001B78C3F5FA631A46274B1A600023FB7360
:101C00000DE0FB7B234A12781A44244B1968FB7BB6
:101C10000B4423498A5C1A70FB7B0133FB73FA7B0C
:101C20001D4B1B689A42ECD37B88002B18D00023F5
:101C3000FB730AE0FA7B194B1968FB7B0B441849CC
:101C40008A5C1A70FB7B0133FB73FB7B9BB27A8847
:101C50009A42EFD87A88104B1B6813440E4A1360DF
:101C60000E4B1B680C4A126819460E4803F0D2FD51
:101C70000A4B1B68BB600C4B1B68084A13600A4A7E
:101C8000BB6813607B88DAB2024B1A7000BF103752
:101C9000BD4680BD903500208C3500208835002061
:101CA000141E00202C1600208435002080B582B040
:101CB00000AF78600B467B807A883B1D1146184642
:101CC000FFF764FF00BF0837BD4680BD80B582B016
:101CD00000AF2648FFF7AEF90023FB7106E0FB7961
:101CE000234A0021D154FB790133FB71FB79052B89
:101CF000F5D9204BA2221A701E4BA2225A701D4BFE
:101D0000A2229A701B4BA222DA701A4BA2221A71DD
:101D1000184BA2225A71174B00229A71154B0022C0
:101D20001A73144B00221A75124B00221A77114BAA
:101D3000002283F824200F4B002283F82C200D4B27
:101D40000D4A9A600B4B0D4A1A610A4B0C4A9A6174
:101D5000084B0C4A1A62074B0B4A9A62054B0B4A16
:101D60001A63012318460837BD4680BD943500200C
:101D7000F4350020FC350020023600200836002013
:101D8000103600201836002020360020283600208B
:101D900080B582B000AF78605D4B9B685D4A1946A4
:101DA0000120FFF79BF903461A46594B1A70584B0E
:101DB0001B69594A19460220FFF790F903461A4653
:101DC000534B5A70524B9B69544A19460320FFF7F4
:101DD00085F903461A464E4B9A704D4B1B6A504A82
:101DE00019460420FFF77AF903461A46484BDA7081
:101DF000474B9B6A4B4A19460520FFF76FF903468C
:101E00001A46434B1A71424B1B6B474A1946062030
:101E1000FFF764F903461A463D4B5A713C4B1B7859
:101E2000A02B03D17B6801221A7006E0384B1B7887
:101E3000A12B02D17B6807221A70354B5B78A02B4F
:101E400003D17B6802221A7006E0314B5B78A12B2C
:101E500002D17B6808221A702D4B9B78A02B03D1EE
:101E60007B6803221A7006E0294B9B78A12B02D1D4
:101E70007B6809221A70264BDB78A02B03D17B6884
:101E800004221A7006E0224BDB78A12B02D17B687A
:101E90000A221A701E4B1B79A02B03D17B680522E6
:101EA0001A7006E01A4B1B79A12B02D17B680B221A
:101EB0001A70174B5B79A02B03D17B6806221A702E
:101EC00006E0134B5B79A12B02D17B680C221A70C0
:101ED0000F4B5B79A22B16D10D4B1B79A22B12D184
:101EE0000B4BDB78A22B0ED1094B9B78A22B0AD18E
:101EF000074B5B78A22B06D1054B1B78A22B02D196
:101F00007B680D221A7000BF0837BD4680BD00BF38
:101F1000FC35002094350020A4350020B435002085
:101F2000C4350020D4350020E435002080B483B0CF
:101F300000AF0346FB80FB88B3F5004F02D1154B81
:101F400001229A71FB88802B02D1124B01221A7355
:101F5000FB88042B02D10F4B01221A75FB88B3F5C5
:101F6000806F02D10B4B01221A77FB88B3F5805F9B
:101F700003D1084B012283F82420FB88082B03D1CE
:101F8000044B012283F82C2000BF0C37BD465DF8BE
:101F9000047B7047FC35002080B500AF40F2E7318C
:101FA0000648FFF78FFD63210448FFF77CFDFFF72C
:101FB000E5FCFFF7F3FC00BF80BD00BFB83B00208D
:101FC00080B483B000AF0346FB80FB880A2B28BF98
:101FD0000A23FB80FB88044A136000BF0C37BD4610
:101FE0005DF8047B704700BF7011002080B582B09F
:101FF00000AF0346FB710C4B1B7883F00103DBB28F
:10200000002B0DD008F0ACF90346084A1360084BCA
:1020100000221A80074AFB791370034B01221A70C1
:1020200000BF0837BD4680BD313600203C36002059
:102030003A3600203836002080B500AF084B002229
:102040001A70084B00221A70074B00221A70074BB7
:1020500000221A8000210020FFF7B0FC00BF80BDE5
:102060003036002031360020383600203A36002045
:1020700080B584B000AF78607B68002B04D100216C
:102080000020FFF79BFC15E00C4A7B6892FBF3F302
:10209000FB60F9680A48FFF715FD0A4B1B68FA68F0
:1020A00002FB03F3084AA2FB0323DB0819460020C6
:1020B000FFF784FC00BF1037BD4680BD40420F00D3
:1020C000B83B002070110020CDCCCCCC80B500AF47
:1020D00000210020FFF772FC00BF80BD80B500AF7B
:1020E0008F4B1B78002B2CD08E4B1B88012B0ED1D5
:1020F0008D4B1B684FF47A7202FB03F38B4AA2FBF1
:102100000323DB0819460020FFF758FC12E0854B3B
:102110001B88322B04D100210020FFF74FFC09E07F
:10212000804B1B881A46824B1B689A4202D17D4B1A
:1021300000221A807B4B1B8801339AB2794B1A809C
:10214000CCE17C4B1B78012B65D17B4B1B88013389
:102150007A4A52F823307A4A1360794B1B68002B75
:1021600008DD784B1A68764B1B6892FBF3F3764ACE
:10217000136021E0724B1B68002B1DDA714B1A684B
:102180006F4B1B68002BB8BF5B4292FBF3F36E4AA8
:1021900013606D4B1B681846FEF7DCF94FF0000228
:1021A0006A4BFEF741FA02460B4610461946FEF707
:1021B000D5FC0346644A13605F4B1B881A465F4B8D
:1021C00053F822301846FFF753FF08F0C9F80246CB
:1021D0005F4B1B68D31A5C4A126893420CD3FFF71B
:1021E00075FF554B1B8802339AB2534B1A8008F087
:1021F000B7F80346564A13604F4B1B881A46554B97
:102200001B685B009A42C0F269814B4B00221A8026
:10221000FFF712FF62E1474B1B78022B65D1464B5B
:102220001B8801334C4A52F82330454A1360444B13
:102230001B68002B08DD494B1A68414B1B6892FB59
:10224000F3F3414A136021E03D4B1B68002B1DDA7C
:10225000424B1A683A4B1B68002BB8BF5B4292FB9B
:10226000F3F3394A1360384B1B681846FEF772F9CE
:102270004FF00002354BFEF7D7F902460B461046E9
:102280001946FEF76BFC03462F4A13602A4B1B8846
:102290001A46314B53F822301846FFF7E9FE08F092
:1022A0005FF802462A4B1B68D31A274A12689342EA
:1022B0000CD3FFF70BFF204B1B8802339AB21E4B47
:1022C0001A8008F04DF80346214A13601A4B1B8808
:1022D0001A46234B1B685B009A42C0F2FF80164BE4
:1022E00000221A80FFF7A8FEF8E0124B1B78032BA0
:1022F00040F08C80104B1B8801331A4A52F823306F
:102300000F4A13600E4B1B68002B2FDD164B1A680B
:102310000B4B1B6892FBF3F30B4A136048E000BFC2
:10232000303600203236002070110020CDCCCCCCCD
:1023300034360020383600203A36002000000020D5
:102340004036002060110020443600200000F83F95
:102350003C36002050110020C800002064110020ED
:102360005411002030010020681100205C4B1B68D4
:10237000002B1DDA5B4B1A68594B1B68002BB8BF4A
:102380005B4292FBF3F3584A1360574B1B681846A5
:10239000FEF7E0F84FF00002544BFEF745F9024615
:1023A0000B4610461946FEF7D9FB03464E4A13600A
:1023B0004F4B1B881A464F4B53F822301846FFF7F5
:1023C00057FE07F0CDFF02464B4B1B68D31A464A17
:1023D000126893420CD3FFF779FE454B1B880233FA
:1023E0009AB2434B1A8007F0BBFF0346424A136080
:1023F0003F4B1B881A46414B1B685B009A426DDBC2
:102400003B4B00221A80FFF717FE67E03C4B1B781E
:10241000042B63D1364B1B8801333A4A52F82330E0
:102420002F4A13602E4B1B68002B08DD364B1A68B1
:102430002B4B1B6892FBF3F32B4A136021E0284BD4
:102440001B68002B1DDA304B1A68254B1B68002BCC
:10245000B8BF5B4292FBF3F3234A1360224B1B6825
:102460001846FEF777F84FF00002204BFEF7DCF835
:1024700002460B4610461946FEF770FB03461A4A01
:1024800013601B4B1B881A461E4B53F8223018460C
:10249000FFF7EEFD07F064FF0246174B1B68D31AE7
:1024A000114A126893420CD3FFF710FE104B1B88A1
:1024B00002339AB20E4B1A8007F052FF03460E4ABF
:1024C00013600B4B1B881A46104B1B685B009A422B
:1024D00004DB074B00221A80FFF7AEFD00BF80BD72
:1024E0004036002068110020443600200000F83FEC
:1024F0003A360020300100203C36002058110020E0
:1025000038360020480700206C1100205C110020A4
:1025100080B483B000AF78607B6890221A707B68CB
:10252000064A5A607B68064A9A607B68054ADA6008
:1025300000BF0C37BD465DF8047B70470D160008E0
:10254000991600083D160008B0B584B000AF786059
:102550007B689C687B68187807F1080202230021D9
:10256000A0473B7A1B021AB27B7A1BB213431BB201
:102570007B81B7F90A30002B2EDA7B896FEA03538F
:102580006FEA13537B817B891B0A9BB207EE903A5B
:10259000F8EEE77A17EE900AFDF7EEFF04460D46D7
:1025A0007B89DB099BB203F001031846FDF7D2FFDC
:1025B0004FF00002224BFEF737F802460B4620464A
:1025C0002946FDF779FE02460B4610461946FEF7EE
:1025D000EDFA0346FB6027E07B891B0A9BB207EEFE
:1025E000903AF8EEE77A17EE900AFDF7C5FF044639
:1025F0000D467B89DB099BB203F001031846FDF70A
:10260000A9FF4FF000020E4BFEF70EF802460B46F4
:1026100020462946FDF752FE02460B461046194653
:10262000FEF7C4FA0346FB60D7ED037AFDEEE77AC6
:10263000C7ED007A3B785BB218461037BD46B0BD97
:102640000000E03F80B485B000AF78607B681B7805
:10265000303B1B015AB27B6801331B78303BDBB245
:102660005BB213435BB2FB73FB7B18461437BD466A
:102670005DF8047B704780B485B000AF0346FB7102
:10268000FB791B09DBB21A46920013445B00DAB2F5
:10269000FB7903F00F03DBB21344FB73FB7B18469B
:1026A0001437BD465DF8047B7047000080B485B0E8
:1026B00000AF0346FB71FA79094BA3FB0213D9085B
:1026C0000B469B000B445B00D31ADBB203F00F03F5
:1026D000FB73FB7B18461437BD465DF8047B7047DF
:1026E000CDCCCCCC80B485B000AF0346FB710B469B
:1026F000BB7113467B71BB79022B05D8BB790C33B8
:10270000BB717B79013B7B717B79224AA2FB03235E
:102710005B09DBB2FB817B791E4AA2FB03125209E3
:10272000642101FB02F29B1ADBB2BB81F979BB7910
:102730005A1C13465B0013449B001344164A82FB49
:1027400003025210DB17D31ACA18BB891344BA8983
:10275000920892B21344FA89920892B21A44FB8901
:102760005B00D21A0D4B83FB021313449910D3174D
:10277000C91A0B46DB005B1AD11A0B467B817B8999
:10278000DBB20133DBB218461437BD465DF8047B7B
:10279000704700BF1F85EB516766666693244992B8
:1027A00090B585B000AF786039603868FFF74AFFB0
:1027B000034603F03F03DBB2FB737B681C697B6855
:1027C000D87907F10F0201230421A04701231846FD
:1027D0001437BD4690BD90B585B000AF78603960C4
:1027E0003868FFF72FFF034603F01F03DBB2FB73CC
:1027F0007B681C697B68D87907F10F0201230521EA
:10280000A047012318461437BD4690BD90B585B04A
:1028100000AF786039603868FFF714FF0346FB7338
:102820007B681C697B68D87907F10F0201230621B8
:10283000A047012318461437BD4690BD90B585B01A
:1028400000AF786039603B681B78352B08D83B684F
:102850001B78352B06D83B6801331B78392B01D9FF
:10286000002311E03868FFF7EDFE034603F07F0315
:10287000DBB2FB737B681C697B68D87907F10F02B8
:1028800001230021A047012318461437BD4690BDFF
:1028900090B585B000AF786039603B681B78352B08
:1028A00008D83B681B78352B06D83B6801331B786A
:1028B000392B01D9002311E03868FFF7C3FE034626
:1028C00003F07F03DBB2FB737B681C697B68D879FC
:1028D00007F10F0201230121A047012318461437F5
:1028E000BD4690BD90B585B000AF786039603B685B
:1028F0001B78322B08D83B681B78322B06D13B68FB
:1029000001331B78332B01D9002311E03868FFF71E
:1029100099FE034603F03F03DBB2FB737B681C693F
:102920007B68D87907F10F0201230221A047012318
:1029300018461437BD4690BD90B585B000AF78609D
:102940007B68DC687B68D87907F108039A1D01234E
:102950000021A0477B68DC687B68D87907F1080311
:102960005A1D01230121A0477B68DC687B68D87968
:1029700007F108031A1D01230221A0477B68DC68C8
:102980007B68D87907F10803DA1C01230321A047EB
:102990007B68DC687B68D87907F108039A1C0123FF
:1029A0000421A0477B68DC687B68D87907F10803BD
:1029B0005A1C01230521A0477B68DC687B68D87915
:1029C00007F1080201230621A047BB7B03F07F0328
:1029D000DBB21846FFF74FFE03461A467B689A7132
:1029E0007B7B03F07F03DBB21846FFF744FE034610
:1029F0001A467B685A713B7B03F03F03DBB21846F3
:102A0000FFF739FE03461A467B681A71FB7A03F01A
:102A10000703DBB21846FFF72EFE03461A467B6813
:102A2000DA70BB7A03F03F03DBB21846FFF723FEF0
:102A300003461A467B689A707B7A03F01F03DBB269
:102A40001846FFF718FE03461A467B685A703B7A11
:102A50001846FFF710FE03461A467B681A707B681B
:102A600018461437BD4690BD90B585B000AF78606C
:102A700039603B68023319467868FFF7C7FE3B6848
:102A8000053319467868FFF7A6FE3B6808331946F8
:102A90007868FFF785FE7868FFF74EFF3B681B7884
:102AA000303B9BB21A465201D21A92001344DB000B
:102AB0009AB23B6801331B78303B9BB219468900C0
:102AC0000B4419468800194603460B449B009BB2F1
:102AD00013449AB23B6802331B78303B9BB21946D1
:102AE00089000B445B009BB213449AB23B680333EA
:102AF0001B789BB213449BB2303BFB817B68987878
:102B00007B685B78FA89D2B21946FFF7EBFD034682
:102B10007B737B7B1846FFF7C9FD034603F0070371
:102B2000DBB23B737B681C697B68D87907F10C02C8
:102B300001230321A0473B680B3319467868FFF750
:102B4000D1FE3B680E3319467868FFF7A1FE3B685B
:102B5000113319467868FFF771FE012318461437C0
:102B6000BD4690BD80B483B000AF78607B68D02252
:102B7000DA717B68064A9A607B68064ADA607B688D
:102B8000054A1A6100BF0C37BD465DF8047B7047EB
:102B90000D160008991600083D16000880B58EB085
:102BA00000AF07F1080383E803007A6007F114031C
:102BB0002422002118460EF0F1F97B7BBB61BB7B20
:102BC0007B613B7BFB61BB7A3B627B7A013B7B6237
:102BD0003B7A6433BB6207F1140318460EF0BEFA69
:102BE00002460B467B681A6000BF3837BD4680BD81
:102BF00080B586B000AF78603960396800200A4639
:102C00000346C7E9022307F1080318460EF096F8B9
:102C100078617B695B6903F26C727B695A617B69DD
:102C20005B69184A82FB03125111DA178A1A642170
:102C300001FB02F29A1AD2B27B681A707B691B6997
:102C4000DBB20133DAB27B685A707B69DB68DAB2D7
:102C50007B689A707B699B68DAB27B681A717B69C2
:102C60005B68DAB27B685A717B691B68DAB27B6891
:102C70009A717B699B69DAB27B68DA7000BF18379A
:102C8000BD4680BD1F85EB5180B500AF632107486D
:102C9000FEF709FF40F2E7310448FEF713FFFEF7A5
:102CA00015FEFEF723FE00BF80BD00BF703B002075
:102CB00080B582B000AF00233B8000237B800023DF
:102CC000BB803B46184600F00FF8054B00221A70F7
:102CD000044B00221A7000BF0837BD4680BD00BFFC
:102CE000573600205836002080B584B000AF786099
:102CF0007B681B881A464FF47A7302FB03F31D4A64
:102D000082FB03121A44D211DB17D31AFB817B68B2
:102D100002331B881A464FF47A7302FB03F3154AF9
:102D200082FB03121A44D211DB17D31ABB817B68D2
:102D300004331B881A464FF47A7302FB03F30D4ADF
:102D400082FB03121A44D211DB17D31A7B81FB8951
:102D500019460020FEF7E8FDBB8919460420FEF75E
:102D6000E3FD7B8919460820FEF7DEFD00BF103722
:102D7000BD4680BD8180808080B582B000AF786024
:102D8000054B01221A700622796804480EF0F8F803
:102D900000BF0837BD4680BD5736002048360020AA
:102DA00080B400AF034B01221A7000BFBD465DF82E
:102DB000047B70475836002080B584B000AF654B67
:102DC0001B88002B07D1634B5B88002B03D1614B21
:102DD0009B88002B29D0604B1B78002B25D05F4BA4
:102DE0001B8801339AB25D4B1A805C4B1B8840F202
:102DF000E732934206D15748FFF776FF574B002240
:102E00001A80A2E0554B1B8840F2F312934240F027
:102E10009C8000233B8100237B810023BB8107F141
:102E200008031846FFF760FF8FE04D4B1B78002B1F
:102E300000F08C804B4B1B8801339AB2494B1A80AF
:102E4000484B1B88092B40F08180474B1B88184654
:102E5000464B1B881946464A0B465B000B441344FD
:102E60001B7800FB03F3434A82FB03129211DB172A
:102E7000D31A9BB23B803C4B1B8818463B4B1B88AC
:102E800019463B4A0B465B000B44134401331B7845
:102E900000FB03F3374A82FB03129211DB17D31AAC
:102EA0009BB27B80304B1B881846304B1B881946E1
:102EB0002F4A0B465B000B44134402331B7800FB84
:102EC00003F32C4A82FB03129211DB17D31A9BB235
:102ED000BB803B461846FFF707FF274B1B7883F064
:102EE0000103DBB2002B0FD01F4B1B8802339AB2B9
:102EF0001D4B1A801C4B1B8840F2E632934220D9AE
:102F00001D4B01221A701CE01B4B1B78002B18D0A4
:102F1000154B1B88023B9AB2134B1A80124B1B882D
:102F2000002B0ED1144B00221A70104B1B88062B5D
:102F300004D00E4B1B8801339BB200E000230B4AE8
:102F40001380084B00221A8000E000BF00BF10373A
:102F5000BD4680BD48360020573600204E36002042
:102F600058360020503600205436002052360020BB
:102F700074110020D34D62105636002090B583B0F6
:102F800000AF78600B46FB707B68DC687B68187864
:102F9000FA1C01230021A047034683F00103DBB2A2
:102FA000002B01D0012300E0002318460C37BD465A
:102FB00090BD80B582B000AF78607B68002B01D1F6
:102FC00002230EE07B685B687A68127810469847A7
:102FD000034683F00103DBB2002B01D0012300E0A4
:102FE000002318460837BD4680BD000080B582B07A
:102FF00000AF0346FB71FB79002B01D1002300E0F9
:10300000FF234FF48062194603480DF0C7FF0023E9
:1030100018460837BD4680BD6436002080B582B0B2
:1030200000AF0023FB71FB1D184603F059FAFB7932
:103030001846FFF7DBFF002318460837BD4680BD62
:1030400090B583B000AF7860144B1B78002B1CD177
:10305000124B40221A70124B60221A70114BB02290
:103060001A707B68DC687B68187801230D4A0021A0
:10307000A047034683F00103DBB2002B01D00123FC
:1030800007E0786800F010F802E0786800F00CF8CB
:10309000002318460C37BD4690BD00BF643A00209F
:1030A000653A0020663A002090B585B000AF7860A0
:1030B0000023FB60324B1B78002B5CD0304B1A781E
:1030C000304B1B789A4251D22D4B1B780133DAB228
:1030D0002B4B1A702A4B1B7803F00303FB60FB6831
:1030E000032B17D17B68DC687B681878244B1B782E
:1030F0009B08DBB203F00703DB01234A1A44802359
:103100004021A047034683F00103DBB2002BD1D05E
:10311000012331E0FB68002B0BD1194B1B789B0876
:10312000DBB203F00703DBB2503BDAB2174B1A7085
:103130000CE0FB68012B03D1144B00221A7005E050
:10314000FB68022B02D1114B10221A707B68DC68DD
:103150007B68187801230D4A0021A047034683F0BD
:103160000103DBB2002BA5D0012305E0044B0022B4
:103170001A70002300E0002318461437BD4690BDA6
:10318000643A0020653A002064360020663A002048
:1031900080B582B000AF78607B68002B0BD07B6875
:1031A0005B68002B07D07B689B68002B03D07B6893
:1031B000DB68002B01D102238BE07868FFF7F9FE72
:1031C0000346002B01D0012383E0AE217868FFF78E
:1031D000D5FE20217868FFF7D1FE10217868FFF72F
:1031E000CDFEB0217868FFF7C9FEC8217868FFF7E7
:1031F000C5FE00217868FFF7C1FE10217868FFF74F
:10320000BDFE40217868FFF7B9FE81217868FFF79D
:10321000B5FEFF217868FFF7B1FEA1217868FFF7BE
:10322000ADFEA6217868FFF7A9FEA8217868FFF710
:10323000A5FE3F217868FFF7A1FEA4217868FFF77B
:103240009DFED3217868FFF799FE00217868FFF78B
:1032500095FED5217868FFF791FEF0217868FFF799
:103260008DFED9217868FFF789FE22217868FFF763
:1032700085FEDA217868FFF781FE12217868FFF772
:103280007DFEDB217868FFF779FE20217868FFF763
:1032900075FE8D217868FFF771FE14217868FFF7BD
:1032A0006DFEAF217868FFF769FE2E217868FFF781
:1032B00065FE0020FFF79AFE7868FFF7C1FE074B16
:1032C00000221A80054B00225A80044B01225A71B9
:1032D000002318460837BD4680BD00BF5C3600207D
:1032E00080B483B000AF78600B46FB70044AFB7873
:1032F0001371002318460C37BD465DF8047B7047F8
:103300005C36002080B586B000AFBA601A4603462E
:10331000FB810B46BB811346FB80B7F906300733B0
:10332000002B00DA0733DB103B820023FB75002300
:10333000BB8244E000237B822FE07B8A03F00703FB
:10334000002B03D0FB7D5B00FB7512E0B7F9143056
:10335000B7F9102003FB02F2B7F91230002B00DAA4
:103360000733DB101BB213441A46BB6813441B78A7
:10337000FB7597F91730002B09DAFA897B8A134419
:103380009BB2B989BA8CD2B2184600F023F8B7F9CB
:1033900012309BB201339BB27B82B7F91220B7F98E
:1033A00006309A42C9DBB7F914309BB201339BB2A5
:1033B000BB82B7F90C309BB201339BB2BB81B7F92A
:1033C0001420B7F920309A42B4DB0023184618378E
:1033D000BD4680BD80B483B000AF0346FB800B4682
:1033E000BB801346FB70FB887F2B02D8BB883F2B2A
:1033F00001D9022345E0264B1B79002B06D0FB7830
:10340000002B0CBF01230023DBB2FB70FB78012BE8
:103410001AD1FA88BB88DB0898B20346DB01134453
:103420001C4AD35C5AB2BB8803F00703012101FA9E
:1034300003F35BB2134359B2FA880346DB0113442A
:10344000C9B2144AD1541BE0FA88BB88DB0898B291
:103450000346DB0113440F4AD35C5AB2BB8803F026
:103460000703012101FA03F35BB2DB435BB21340B4
:1034700059B2FA880346DB011344C9B2054AD15454
:10348000002318460C37BD465DF8047B704700BF2B
:103490005C3600206436002080B483B000AF034661
:1034A0000A46FB801346BB80FB88802B02D8BB8872
:1034B000402B01D9022306E0064AFB881380054A07
:1034C000BB885380002318460C37BD465DF8047B4B
:1034D000704700BF5C36002080B58AB000AFF8604E
:1034E000B9607A603B6000237B6200233B6200236B
:1034F000FB610023BB6136E00023FB6100237B619D
:1035000027E0FB6903F00703002B03D07B6A5B1005
:103510007B6207E03B6A7A6813441B787B623B6AF4
:1035200001333B62FB690133FB617B6A03F00103FA
:10353000002B0BD0FB6898B2BB689AB27B699BB238
:1035400013449BB201221946FFF744FF7B69013304
:103550007B617A693B6B9A42D3DBFB680133FB608A
:10356000BB690133BB61BA693B689A42C4DB002383
:1035700018462837BD4680BD90B589B002AF0346D6
:103580003960FB711346BB71604B1B881A463B6860
:103590001B7813447F2B07DC5C4B5B881A463B6827
:1035A0005B7813443F2B01DD0223AAE03B685B7884
:1035B000192B03D13B681B780F2B07D03B685B7836
:1035C000132B3FD13B681B780A2B3BD10023FB8197
:1035D0003B685B78132B06D13B681B780A2B02D122
:1035E0000F23FB8109E03B685B78192B05D13B6811
:1035F0001B780F2B01D11E23FB81444B1B881846DF
:10360000424B5B881C463B685A68FB79203BF98932
:1036100001FB03F35B001A443B681B7819463B68C7
:103620005B7800930B462146FFF756FF374B1A880D
:103630003B681B789BB213449BB203339AB2334B63
:103640001A805DE000237B614BE03B685A68FB79A0
:10365000203B3968497801FB03F319467B690B4429
:103660005B0013441B88BB6000233B6130E0BA68F9
:103670003B6902FA03F303F40043002B10D0234B01
:103680001A883B699BB2134498B2204B5A887B69D5
:103690009BB213449BB2BA791946FFF79BFE14E024
:1036A0001A4B1A883B699BB2134498B2174B5A883D
:1036B0007B699BB2134499B2BB79002B0CBF0123E9
:1036C0000023DBB21A46FFF785FE3B6901333B61FD
:1036D0003B681B781A463B699342C8D37B69013328
:1036E0007B613B685B781A467B699342ADD3074B9D
:1036F0001A883B681B789BB213449AB2034B1A801A
:10370000002318461C37BD4690BD00BF5C36002024
:1037100080B584B000AFF860B9601346FB710EE06D
:10372000FB681B78FA79B9681846FFF725FF03464E
:10373000002B01D0012307E0FB680133FB60FB682D
:103740001B78002BECD1002318461037BD4680BDF6
:1037500090B587B000AF0446084611461A46234686
:10376000FB800346BB800B467B8013467B707B88C7
:10377000C3F101039BB2FB820123BB827B881A4603
:10378000D203D31A5B009BB27B8200233B827B88EF
:10379000FB81F888BA887B8813449BB27A781946F3
:1037A000FFF718FEF888BA887B88D31A9BB27A781C
:1037B0001946FFF70FFEFA887B8813449BB2B9883D
:1037C0007A781846FFF706FEFA887B88D31A9BB2F0
:1037D000B9887A781846FFF7FDFD81E0B7F9163011
:1037E000002B0EDBB7F90E309BB2013B9BB2FB8185
:1037F0007B8A02339BB27B82FA8A7B8A13449BB218
:10380000FB82B7F910309BB201339BB23B82BB8A7B
:1038100002339BB2BB82FA8ABB8A13449BB2FB82FF
:10382000FA883B8A134498B2BA88FB8913449BB246
:103830007A781946FFF7CEFDFA883B8AD31A98B2F8
:10384000BA88FB8913449BB27A781946FFF7C2FD08
:10385000FA883B8A134498B2BA88FB89D31A9BB280
:103860007A781946FFF7B6FDFA883B8AD31A98B2E0
:10387000BA88FB89D31A9BB27A781946FFF7AAFD5A
:10388000FA88FB89134498B2BA883B8A13449BB2E6
:103890007A781946FFF79EFDFA88FB89D31A98B209
:1038A000BA883B8A13449BB27A781946FFF792FD97
:1038B000FA88FB89134498B2BA883B8AD31A9BB220
:1038C0007A781946FFF786FDFA88FB89D31A98B2F1
:1038D000BA883B8AD31A9BB27A781946FFF77AFDE9
:1038E000B7F91020B7F90E309A42FFF677AF00BF54
:1038F00000BF1C37BD4690BD90B589B002AF0446ED
:10390000084611461A462346FB800346BB800B46F9
:103910007B8013467B707B88C3F101039BB2FB82E3
:103920000123BB827B881A46D203D31A5B009BB269
:103930007B8200233B827B88FB81F888BA887B8866
:1039400013449BB27A781946FFF744FDF888BA8889
:103950007B88D31A9BB27A781946FFF73BFDFA8829
:103960007B8813449BB2B9887A781846FFF732FDFA
:10397000FA887B88D31A9BB2B9887A781846FFF701
:1039800029FDFA887B88D31A98B2B988FA887B888F
:1039900013449AB2BC887B780093234600F087F8E2
:1039A00079E0B7F91630002B0EDBB7F90E309BB279
:1039B000013B9BB2FB817B8A02339BB27B82FA8AFA
:1039C0007B8A13449BB2FB82B7F910309BB2013360
:1039D0009BB23B82BB8A02339BB2BB82FA8ABB8A10
:1039E00013449BB2FB82FA883B8AD31A98B2BA88F6
:1039F000FB89134499B2FA883B8A13449CB2BA8873
:103A0000FB8913449AB27B7800931346224600F058
:103A10004EF8FA883B8A134498B2BA88FB89D31AC5
:103A200099B2FA883B8AD31A9CB2BA88FB89D31A16
:103A30009AB27B7800931346224600F038F8FA8851
:103A4000FB89134498B2BA883B8A134499B2FA8826
:103A5000FB89D31A9CB2BA883B8A13449AB27B780A
:103A600000931346224600F022F8FA88FB8913449B
:103A700098B2BA883B8AD31A99B2FA88FB89D31ACA
:103A80009CB2BA883B8AD31A9AB27B7800931346C9
:103A9000224600F00CF8B7F91020B7F90E309A4220
:103AA000FFF67FAF00BF00BF1C37BD4690BD90B58D
:103AB00087B000AF0446084611461A462346FB80ED
:103AC0000346BB800B467B8013463B80FB887F2BE5
:103AD00001D97F23FB807B887F2B01D97F237B80CB
:103AE000BB883F2B01D93F23BB803B883F2B01D9AB
:103AF0003F233B80FA887B889A4205D27A88FB88EC
:103B0000D31A9BB21BB204E0FA887B88D31A9BB20B
:103B10001BB27B82BA883B889A4205D23A88BB881E
:103B2000D31A9BB21BB204E0BA883B88D31A9BB26B
:103B30001BB23B82FA887B889A4201D2012301E0C2
:103B40004FF0FF33FB81BA883B889A4201D20123B0
:103B500001E04FF0FF33BB81B7F91220B7F9103005
:103B60009A4206DDB7F91230DA0F13445B101BB22C
:103B700006E0B7F91030DA0F13445B105B421BB25A
:103B8000FB82B7F91230002B29D13A88BB889A42C0
:103B900005D23B883B81BB883B803B89BB807A88D0
:103BA000FB889A4205D27B883B81FB887B803B89DE
:103BB000FB80BB88BB820CE0B98A97F82820FB8881
:103BC0001846FFF707FCB7F914309BB201339BB2DC
:103BD000BB82B7F914203B889A42EDDD5FE0B7F96C
:103BE0001030002B29D13A88BB889A4205D23B88F5
:103BF0003B81BB883B803B89BB807A88FB889A42AB
:103C000005D27B883B81FB887B803B89FB80FB88DE
:103C1000BB820CE0BB8A97F82820B9881846FFF7CA
:103C2000D9FBB7F914309BB201339BB2BB82B7F911
:103C300014207B889A42EDDD31E097F82820B9887E
:103C4000FB881846FFF7C6FBFA887B889A4203D1A7
:103C5000BA883B889A4221D0FB8A7B81B7F90A2037
:103C6000B7F912305B429A4208DDFA8A3B8AD31ACE
:103C70009BB2FB82FA89FB881344FB80B7F90A20C8
:103C8000B7F910309A42D8DAFA8A7B8A13449BB289
:103C9000FB82BA89BB881344BB80CEE700BF1C37C8
:103CA000BD4690BD90B585B002AF044608461146AA
:103CB0001A462346FB800346BB800B467B80134697
:103CC0003B80FB887F2B53D8BB883F2B50D8FA888A
:103CD0007B8813447F2B03DDFB88C3F180037B804B
:103CE000BA883B8813443F2B03DDBB88C3F14003F4
:103CF0003B80FA887B8813449AB2BC88B988F888DC
:103D00003B7E00932346FFF7D2FEBA883B881344DC
:103D100099B2FA887B8813449CB2BA883B881344D2
:103D20009AB2F8883B7E009313462246FFF7BFFE07
:103D3000BA883B8813449CB2FA88B988F8883B7EDD
:103D400000932346FFF7B3FEFA887B88134498B2AA
:103D5000FA887B8813449CB2BA883B8813449AB291
:103D6000B9883B7E009313462246FFF7A0FE00E091
:103D700000BF0C37BD4690BDB0B58AB002AF87ED2D
:103D8000030AC7ED020A87ED011AF868FCF7F4FB95
:103D9000A9A3D3E90023FCF747FC02460B461046D3
:103DA00019464FF00002A64BFCF768FD02460B4691
:103DB00043EC172BB0EE470AF0EE670A0FF068FEEF
:103DC00055EC104BB868FCF7D7FB02460B46204673
:103DD0002946FCF729FC02460B46104619464FF0CF
:103DE0000002984BFCF76AFA02460B4643EC172B8D
:103DF000B0EE470AF0EE670A0FF002FE53EC102B0C
:103E000010461946FCF7D2FE0346FB61F868FCF742
:103E1000B3FB89A3D3E90023FCF706FC02460B465B
:103E2000104619464FF00002854BFCF727FD02466D
:103E30000B4643EC172BB0EE470AF0EE670A0FF083
:103E40008BFD55EC104BB868FCF796FB02460B4611
:103E500020462946FCF7E8FB02460B464FF00000DF
:103E60007849FCF729FA02460B4643EC172BB0EED3
:103E7000470AF0EE670A0FF0C3FD53EC102B104613
:103E80001946FCF793FE0346BB61D7ED037A9FED1D
:103E90006E7A77EE877A17EE900AFCF76DFB66A3D1
:103EA000D3E90023FCF7C0FB02460B461046194637
:103EB0004FF00002624BFCF7E1FC02460B4643EC7C
:103EC000172BB0EE470AF0EE670A0FF0E1FD55EC54
:103ED000104B7868FCF750FB02460B4620462946FB
:103EE000FCF7A2FB02460B46104619464FF00002B3
:103EF000544BFCF7E3F902460B4643EC172BB0EEAC
:103F0000470AF0EE670A0FF07BFD53EC102B1046CA
:103F10001946FCF74BFE03467B61D7ED037A9FED14
:103F20004A7A77EE877A17EE900AFCF725FB42A3D0
:103F3000D3E90023FCF778FB02460B4610461946EE
:103F40004FF000023E4BFCF799FC02460B4643EC57
:103F5000172BB0EE470AF0EE670A0FF0FDFC55ECA8
:103F6000104B7868FCF708FB02460B4620462946B2
:103F7000FCF75AFB02460B464FF000003149FCF7B4
:103F80009BF902460B4643EC172BB0EE470AF0EEC6
:103F9000670A0FF035FD53EC102B10461946FCF75D
:103FA00005FE03463B61D7ED077AFCEEE77A17EE94
:103FB000903A98B2D7ED067AFCEEE77A17EE903A8F
:103FC00099B2D7ED057AFCEEE77A17EE903A9AB2FD
:103FD000D7ED047AFCEEE77A17EE903A9BB2012413
:103FE0000094FFF764FDD7ED057AFDEEE77A17EE52
:103FF000903A18B2D7ED047AFDEEE77A17EE903AD0
:1040000019B200230322FFF777FCD7ED057AFDEE06
:10401000E77A17EE903A18B2D7ED047AFDEEE77A18
:1040200017EE903A19B201230322FFF791FB00BF6C
:104030002037BD46B0BD00BF182D4454FB210940B8
:104040000080664000004040000034430000000053
:10405000B0B590B002AFF8603B1D83E80600FEF7F4
:10406000DDFF01231F2220212020FFF771FB002309
:104070007B6396E07A6B13465B0013445B00184643
:10408000FCF768FA4AA3D3E90023FCF7CDFA02460D
:104090000B46104619464FF00002474BFCF7EEFB6B
:1040A00002460B4643EC172BB0EE470AF0EE670AC8
:1040B0000FF0EEFC51EC100B4FF000023F4BFCF701
:1040C000B3FA02460B46104619464FF000023C4B2D
:1040D000FCF7F4F802460B4643EC172BB0EE470A08
:1040E000F0EE670A0FF08CFC53EC102B10461946CB
:1040F000FCF75CFD0346FB627A6B13465B001344DE
:104100005B001846FCF726FA29A3D3E90023FCF745
:104110008BFA02460B46104619464FF00002264B1A
:10412000FCF7ACFB02460B4643EC172BB0EE470AFC
:10413000F0EE670A0FF010FC51EC100B4FF000028C
:104140001E4BFCF771FA02460B464FF000001C496B
:10415000FCF7B2F802460B4643EC172BB0EE470AC9
:10416000F0EE670A0FF04CFC53EC102B104619468A
:10417000FCF71CFD0346BB62D7ED0B7AFCEEE77A39
:1041800017EE903A9BB2D7ED0A7AFCEEE77A17EE7B
:10419000902A91B201221846FFF71CF97B6B01337C
:1041A0007B637B6B3B2B7FF765AF00233B633DE17C
:1041B000182D4454FB2109400080664000003D401A
:1041C00000004040396BE24B83FB0132CB17D21A1F
:1041D00013465B001344CA1A002A00F024813A6B8C
:1041E00013461B019B1A5B001846FCF7B3F9D6A3D4
:1041F000D3E90023FCF718FA02460B46104619468D
:104200004FF00002D34BFCF739FB02460B4643EC60
:10421000172BB0EE470AF0EE670A0FF039FC51ECAD
:10422000100B4FF00002CC4BFCF7FEF902460B4698
:10423000104619464FF00002C84BFCF73FF8024603
:104240000B4643EC172BB0EE470AF0EE670A0FF06F
:10425000D7FB53EC102B10461946FCF7A7FC03467E
:10426000FB623A6B13461B019B1A5B001846FCF776
:1042700071F9B5A3D3E90023FCF7D6F902460B4642
:10428000104619464FF00002B24BFCF7F7FA02460F
:104290000B4643EC172BB0EE470AF0EE670A0FF01F
:1042A0005BFB51EC100B4FF00002AB4BFCF7BCF981
:1042B00002460B464FF00000A849FBF7FDFF0246FF
:1042C0000B4643EC172BB0EE470AF0EE670A0FF0EF
:1042D00097FB53EC102B10461946FCF767FC03467E
:1042E000BB623A6B13461B019B1A5B001846FCF736
:1042F00031F995A3D3E90023FCF796F902460B4662
:10430000104619464FF00002924BFCF7B7FA0246EE
:104310000B4643EC172BB0EE470AF0EE670A0FF09E
:10432000B7FB51EC100B4FF000028D4BFCF77CF902
:1043300002460B46104619464FF00002874BFBF72A
:10434000BDFF02460B4643EC172BB0EE470AF0EEDA
:10435000670A0FF055FB53EC102B10461946FCF77B
:1043600025FC03467B623A6B13461B019B1A5B00DC
:104370001846FCF7EFF874A3D3E90023FCF754F9CF
:1043800002460B46104619464FF00002714BFCF7EF
:1043900075FA02460B4643EC172BB0EE470AF0EED7
:1043A000670A0FF0D9FA51EC100B4FF000026C4B7A
:1043B000FCF73AF902460B464FF000006749FBF75D
:1043C0007BFF02460B4643EC172BB0EE470AF0EE9C
:1043D000670A0FF015FB53EC102B10461946FCF73B
:1043E000E5FB03463B62D7ED0B7AFCEEE77A17EE6E
:1043F000903A98B2D7ED0A7AFCEEE77A17EE903A47
:1044000099B2D7ED097AFCEEE77A17EE903A9AB2B4
:10441000D7ED087AFCEEE77A17EE903A9BB20124CA
:104420000094FFF744FB3B6B01333B633B6B0B2B6F
:104430007FF7C8AE05211A20FFF72EF8012249495F
:104440004948FFF765F91C213620FFF725F80122BE
:1044500044494648FFF75CF933211D20FFF71CF85B
:10446000012240494248FFF753F91C210420FFF77D
:1044700013F801223B493F48FFF74AF9BB7A1A4635
:1044800013465B0013445B0007EE903AF8EEE77AC0
:10449000B2EE041AF3EE0B0AB0EE670AFFF76CFCFB
:1044A0007B7A1A4613465B0013445B0007EE903A92
:1044B000F8EEE77A9FED301AF3EE010AB0EE670AE4
:1044C000FFF75AFC3B7A1A4613461B019B1A5B0006
:1044D0001846FCF73FF804460D467B7A1846FCF771
:1044E00039F84FF000024FF08043FCF7C7F902465D
:1044F0000B4620462946FBF7E1FE02460B461046D6
:104500001946FCF753FB03469FED1B1AF2EE0C0A0B
:1045100000EE103AFFF730FC00214120FEF7BCFF0F
:10452000FB79013B154A52F8232007F11403144983
:1045300018460DF009F907F1140301221149184634
:1045400022E000BFAFF30080182D4454FB21094046
:1045500056555555008066400000394000004040E7
:1045600000003440E81100208C4B0108904B0108FA
:10457000944B0108984B010800000000BC1100207A
:104580009C4B0108F0110020FFF7C2F814214620CF
:10459000FEF782FFBB791A4607F114032F4918462C
:1045A0000DF0D2F807F1140301222D491846FFF748
:1045B000AFF814215C20FEF76FFF7B79013B294A9D
:1045C00052F8232007F11403274918460DF0BCF8D0
:1045D00007F11403012222491846FFF799F8282110
:1045E0004620FEF759FF3B791A4607F114031F498D
:1045F00018460DF0A9F807F11403012218491846CE
:10460000FFF786F801230193102300931023184A23
:1046100000216120FEF776FE05217120FEF73CFFA8
:104620000023FB7407F11303184605F07DFBFB7CA8
:104630001A4607F110030F4918460DF085F807F1E7
:10464000100301220C491846FFF762F8F868FEF7DC
:10465000F7FC002318463837BD46B0BDA04B010813
:10466000F01100208C1100209C4B0108A84B010880
:10467000348D0108B04B0108E811002090B58DB0D1
:1046800002AFF860381D80E80600FB700023FB7461
:10469000FEF7C4FC14211420FEF7FEFE3B7A1A46F6
:1046A0007B7A1946BB7A07F1140000930B46334915
:1046B0000DF04AF807F11403012231491846FFF7BB
:1046C00027F8FB79013B2F4A52F82320BB791C467F
:1046D0007B79013B2C4951F82330397907F11400DB
:1046E00001910093234629490DF02EF835210A2027
:1046F000FEF7D2FE07F11403012225491846FFF701
:1047000007F802210220FEF7C7FE97F9032007F100
:104710001403204918460DF017F807F1140301227D
:104720001B491846FEF7F4FF012301931023009361
:104730001023194A00216120FEF7E4FD05217120B4
:10474000FEF7AAFE07F11303184605F0EDFAFB7C0D
:104750001A4607F11403114918460CF0F5FF07F14A
:10476000140301220A491846FEF7D2FFF868FEF743
:1047700067FC002318462C37BD4690BDB44B01089A
:10478000F0110020BC1100208C110020C44B010846
:10479000E8110020D44B0108348D0108B04B01080A
:1047A00080B500AFFDF7ACF90023184680BD0000CE
:1047B00080B582B000AF786079680448FDF7AEF943
:1047C000002318460837BD4680BD00BF903C00203E
:1047D00080B500AF4FF4FA6203490448FDF7B2F91F
:1047E00000BF184680BD00BF141E0020903C002072
:1047F00080B500AF024801F061F80346184680BD5D
:104800002C16002080B582B000AF786039603A681D
:104810007968044800F08CFF002318460837BD462D
:1048200080BD00BF2C16002080B500AF05F032FD22
:1048300000F01AF800F096FA00F064FA00F038FA86
:1048400000F07AF800F0A6F800F0D2F800F0D2F903
:1048500000F05AF900F008FA04F0DCFD014804F019
:10486000F1FDFBE7943D002080B594B000AF07F167
:1048700020033022002118460CF090FB07F10C03B6
:1048800000221A605A609A60DA601A610023BB60E5
:10489000274B1B6C264A43F080531364244B1B6C3C
:1048A00003F08053BB60BB6800237B60214B1B6817
:1048B000204A43F4404313601E4B1B6803F44043FB
:1048C0007B607B6801233B624FF480337B62022371
:1048D000BB634FF48003FB6304233B6464237B646A
:1048E0000223BB640423FB6407F12003184609F08C
:1048F0006BFB0346002B01D000F0CCFA0F23FB60CA
:1049000002233B6100237B614FF48053BB61002392
:10491000FB6107F10C030321184609F0CDFD0346A6
:10492000002B01D000F0B6FA00BF5037BD4680BD65
:10493000003802400070004080B500AF124B134AAF
:104940001A60114B124A5A600F4B00229A600E4BAC
:104950000022DA600C4B4FF480421A610A4B0022AD
:104960005A61094B00229A61074B0022DA61064B1B
:1049700000221A62044806F005FC0346002B01D011
:1049800000F088FA00BF80BD683A00200054004063
:10499000801A060080B500AF124B134A1A60114B03
:1049A000124A5A600F4B00229A600E4B0022DA60C6
:1049B0000C4B4FF480421A610A4B00225A61094B9A
:1049C00000229A61074B0022DA61064B00221A622C
:1049D000044806F0D7FB0346002B01D000F05AFA3A
:1049E00000BF80BDBC3A0020005C0040801A060079
:1049F00080B58EB000AF07F1280300221A605A601C
:104A00009A60DA6007F1200300221A605A603B1DA9
:104A100000221A605A609A60DA601A615A619A61DB
:104A2000374B384A1A60364B00225A60344B00220A
:104A30009A60334B4FF6FF72DA60314B00221A61F5
:104A40002F4B00229A612E4809F056FF0346002B97
:104A500001D000F01FFA4FF48053BB6207F1280326
:104A6000194627480AF0CEFA0346002B01D000F081
:104A700011FA234809F0F2FF0346002B01D000F0A1
:104A800009FA00233B6200237B6207F120031946E9
:104A90001B480AF073FE0346002B01D000F0FAF920
:104AA00060237B600023BB600023FB6000237B61ED
:104AB0003B1D0022194612480AF0E2F90346002B7A
:104AC00001D000F0E7F93B1D042219460C480AF01A
:104AD000D7F90346002B01D000F0DCF93B1D08227A
:104AE000194607480AF0CCF90346002B01D000F024
:104AF000D1F9034800F05AFB00BF3837BD4680BDEE
:104B0000703B00200004004080B58EB000AF07F17C
:104B1000280300221A605A609A60DA6007F12003C5
:104B200000221A605A603B1D00221A605A609A6087
:104B3000DA601A615A619A612C4B2D4A1A602B4B2C
:104B400000225A60294B00229A60284B4FF6FF72D0
:104B5000DA60264B00221A61244B00229A61234816
:104B600009F0CAFE0346002B01D000F093F94FF480
:104B70008053BB6207F1280319461C480AF042FA29
:104B80000346002B01D000F085F9184809F066FFB4
:104B90000346002B01D000F07DF900233B62002387
:104BA0007B6207F12003194610480AF0E7FD03462F
:104BB000002B01D000F06EF960237B600023BB6006
:104BC0000023FB6000237B613B1D00221946074840
:104BD0000AF056F90346002B01D000F05BF90348B8
:104BE00000F0E4FA00BF3837BD4680BDB83B002076
:104BF0000008004080B584B000AF3B4600221A6038
:104C00005A609A60DA60164B164A1A60144B0022FA
:104C10005A60134B00229A60114B4FF6FF72DA6014
:104C20000F4B00221A610E4B00229A610C4809F0CA
:104C300063FE0346002B01D000F02CF94FF48053A3
:104C40003B603B46194606480AF0DCF90346002B58
:104C500001D000F01FF900BF1037BD4680BD00BF76
:104C6000003C00200040014080B500AF0E4B0F4AD1
:104C70001A600D4B42F20F725A600B4B00229A6081
:104C8000094B42F20F72DA60074B00221A61064BA1
:104C900080229A61044809F02FFE0346002B01D0C0
:104CA00000F0F8F800BF80BD483C002000480140FB
:104CB00080B500AF114B124A1A60104B4FF4E1322D
:104CC0005A600E4B00229A600C4B0022DA600B4BAC
:104CD00000221A61094B0C225A61084B00229A618A
:104CE000064B0022DA6105480AF0CAFD0346002B94
:104CF00001D000F0CFF800BF80BD00BF903C002085
:104D00000044004080B582B000AF00237B60144BAC
:104D10001B6B134A43F400131363114B1B6B03F417
:104D200000137B607B68002200210F2005F023FC2C
:104D30000F2005F03CFC00220021102005F01BFC98
:104D4000102005F034FC00220021112005F013FC96
:104D5000112005F02CFC00BF0837BD4680BD00BF08
:104D60000038024080B58AB000AF07F1140300227A
:104D70001A605A609A60DA601A6100233B61414B05
:104D80001B6B404A43F0800313633E4B1B6B03F0E5
:104D900080033B613B690023FB603A4B1B6B394A44
:104DA00043F004031363374B1B6B03F00403FB60F6
:104DB000FB680023BB60334B1B6B324A43F001039B
:104DC0001363304B1B6B03F00103BB60BB68002314
:104DD0007B602C4B1B6B2B4A43F002031363294B64
:104DE0001B6B03F002037B607B6841F20C437B6129
:104DF0004FF40413BB610123FB6107F1140319464F
:104E0000214806F00BF84FF400437B614FF4041384
:104E1000BB610123FB6107F1140319461B4805F030
:104E2000FDFF80237B614FF40413BB610123FB6111
:104E300007F114031946164805F0F0FF002200217F
:104E4000082005F098FB082005F0B1FB00220021A6
:104E5000092005F090FB092005F0A9FB00220021A4
:104E6000172005F088FB172005F0A1FB00220E217A
:104E7000282005F080FB282005F099FB00BF28378B
:104E8000BD4680BD003802400008024000000240DC
:104E90000004024080B400AF72B600BFFEE700001D
:104EA00080B483B000AF00237B60104B5B6C0F4A73
:104EB00043F4804353640D4B5B6C03F480437B608D
:104EC0007B6800233B60094B1B6C084A43F080530E
:104ED0001364064B1B6C03F080533B603B6800BFC0
:104EE0000C37BD465DF8047B704700BF00380240B8
:104EF00080B58CB000AF786007F11C0300221A6007
:104F00005A609A60DA601A617B681B685E4A934255
:104F10002DD10023BB615D4B1B6B5C4A43F0020348
:104F200013635A4B1B6B03F00203BB61BB694FF465
:104F30004073FB6112233B6201237B620323BB624C
:104F40000423FB6207F11C031946514805F066FF74
:104F500000237B614D4B1B6C4C4A43F400131364DC
:104F60004A4B1B6C03F400137B617B6987E07B6811
:104F70001B68484A934240F0828000233B61434BC8
:104F80001B6B424A43F004031363404B1B6B03F05B
:104F900004033B613B690023FB603C4B1B6B3B4ABA
:104FA00043F001031363394B1B6B03F00103FB60F8
:104FB000FB684FF40073FB6112233B6201237B62A9
:104FC0000323BB620423FB6207F11C03194632482A
:104FD00005F024FF4FF48073FB6112233B62012331
:104FE0007B620323BB620423FB6207F11C031946A7
:104FF0002A4805F013FF0023BB60244B1B6C234A97
:1050000043F400031364214B1B6C03F40003BB60E7
:10501000BB68234B234A1A60214B4FF0C0625A6091
:105020001F4B40229A601E4B0022DA601C4B4FF44B
:1050300080621A611A4B00225A61194B00229A6150
:10504000174B0022DA61164B00221A62144B002221
:105050005A62134805F0C6FA0346002B01D0FFF749
:1050600019FF7B680E4A5A630D4A7B6893630022DE
:105070000E21482005F07FFA482005F098FA00BF7D
:105080003037BD4680BD00BF0054004000380240AC
:1050900000040240005C00400008024000000240A2
:1050A000103B00207060024080B586B000AF786091
:1050B0007B681B68384A934216D100237B61374BCB
:1050C0001B6C364A43F002031364344B1B6C03F031
:1050D00002037B617B69002200211D2005F04BFA51
:1050E0001D2005F064FA52E07B681B682C4A93424D
:1050F00016D100233B61294B1B6C284A43F0040363
:105100001364264B1B6C03F004033B613B690022D4
:1051100000211E2005F02FFA1E2005F048FA36E087
:105120007B681B681F4A934216D10023FB601B4B10
:105130005B6C1A4A43F480335364184B5B6C03F482
:105140008033FB60FB6800220121182005F013FA70
:10515000182005F02CFA1AE07B681B68124A93426B
:1051600015D10023BB600D4B5B6C0C4A43F48023CC
:1051700053640A4B5B6C03F48023BB60BB68002262
:105180000F211A2005F0F7F91A2005F010FA00BFD8
:105190001837BD4680BD00BF000400400038024003
:1051A00000080040004001400048014080B58AB03E
:1051B00000AF786007F1140300221A605A609A6009
:1051C000DA601A617B681B68244A93421FD100236E
:1051D0003B61234B1B6B224A43F004031363204BB8
:1051E0001B6B03F004033B613B694FF4E0737B618D
:1051F0000223BB610223FB6100233B6202237B622B
:1052000007F114031946174805F008FE22E07B68F1
:105210001B68154A93421DD10023FB60104B1B6B8A
:105220000F4A43F0020313630D4B1B6B03F00203A1
:10523000FB60FB6840237B610223BB610023FB61B1
:1052400000233B6202237B6207F1140319460748DF
:1052500005F0E4FD00BF2837BD4680BD00040040D6
:1052600000380240000802400008004000040240EC
:1052700080B58AB000AF786007F1140300221A608D
:105280005A609A60DA601A617B681B684C4A9342E4
:1052900040F0928000233B614A4B1B6C494A43F427
:1052A00000331364474B1B6C03F400333B613B69D1
:1052B0000023FB60434B1B6B424A43F00103136323
:1052C000404B1B6B03F00103FB60FB680C237B610D
:1052D0000223BB610023FB6103233B6207237B6244
:1052E00007F114031946384805F098FD374B384A42
:1052F0001A60364B4FF000625A60344B00229A60BD
:10530000324B0022DA60314B4FF480621A612F4B2E
:1053100000225A612D4B00229A612C4B4FF480726F
:10532000DA612A4B00221A62284B00225A6227486F
:1053300005F058F90346002B01D0FFF7ABFD7B6861
:10534000224A9A63214A7B689363224B224A1A605D
:10535000204B4FF000625A601E4B40229A601D4B5A
:105360000022DA601B4B4FF480621A61194B002255
:105370005A61184B00229A61164B4FF48072DA6121
:10538000144B00221A62134B00225A62114805F096
:1053900029F90346002B01D0FFF77CFD7B680D4AFD
:1053A0005A630C4A7B68936300220021262005F093
:1053B000E2F8262005F0FBF800BF2837BD4680BD87
:1053C000004400400038024000000240D43C00206D
:1053D00088600240343D0020A060024080B400AFED
:1053E000FEE780B400AFFEE780B400AFFEE780B414
:1053F00000AFFEE780B400AFFEE780B400AF00BFAF
:10540000BD465DF8047B704780B400AF00BFBD4669
:105410005DF8047B704780B400AF00BFBD465DF807
:10542000047B704780B500AF04F086FF00BF80BDED
:1054300080B500AF042005F08DFE00BF80BD80B5B3
:1054400000AF082005F086FE00BF80BD80B500AF2C
:10545000024805F05FFA00BF80BD00BF103B00208E
:1054600080B500AF024805F055FA00BF80BD00BF0F
:10547000D43C002080B500AF024805F04BFA00BFD5
:1054800080BD00BF343D002080B500AF802005F016
:1054900061FE00BF80BD000080B500AF024809F08A
:1054A000E7FB00BF80BD00BF003C002080B500AF1F
:1054B000024809F0DDFB00BF80BD00BF483C002072
:1054C00080B500AF024809F0D3FB00BF80BD00BF2C
:1054D000703B002080B500AF024809F0C9FB00BF57
:1054E00080BD00BFB83B002080B500AF02480AF085
:1054F0000BFB00BF80BD00BF903C002080B500AF1B
:105500004FF4806005F026FE4FF4805005F022FE37
:105510004FF4004005F01EFE00BF80BD80B500AF17
:10552000024806F025FD00BF80BD00BFBC3A002048
:1055300080B400AF01231846BD465DF8047B704778
:1055400080B582B000AF786039600BF0CDFB0346C8
:1055500016221A604FF0FF3318460837BD4680BD4B
:1055600080B582B000AF78604FF0FF317868FFF708
:10557000E7FFFEE780B586B000AFF860B9607A60FB
:1055800000237B610AE0AFF300800146BB685A1C30
:10559000BA60CAB21A707B6901337B617A697B6831
:1055A0009A42F0DB7B6818461837BD4680BD80B54F
:1055B00086B000AFF860B9607A6000237B6109E0D3
:1055C000BB685A1CBA601B781846AFF300807B6931
:1055D00001337B617A697B689A42F1DB7B6818460C
:1055E0001837BD4680BD80B483B000AF78604FF0FF
:1055F000FF3318460C37BD465DF8047B704780B416
:1056000083B000AF786039603B684FF400525A6055
:10561000002318460C37BD465DF8047B704780B404
:1056200083B000AF7860012318460C37BD465DF8A3
:10563000047B704780B485B000AFF860B9607A60D1
:10564000002318461437BD465DF8047B7047000000
:1056500080B586B000AF7860144A154BD31A7B61D1
:105660007B693B61134B1B68002B02D1114B124A23
:105670001A60104B1A687B6813443A699A4207D241
:105680000BF032FB03460C221A604FF0FF3309E0A7
:10569000084B1B68FB60074B1A687B681344054A7C
:1056A0001360FB6818461837BD4680BD0000022015
:1056B000000400009C3D0020C050002080B400AFDA
:1056C000064BD3F88830054A43F47003C2F888309B
:1056D00000BFBD465DF8047B704700BF00ED00E0F1
:1056E00080B485B000AFF860B9607A60FB685B6831
:1056F000B3F5000F01D87B6801E04FF40003FA68AE
:105700005360FB684FF0FF32DA60FB684FF0FF3206
:105710009A60FB68BA681A60FB6800221A61FB682D
:1057200001221A7500BF1437BD465DF8047B70472F
:1057300080B487B000AFF860B9607A6001237B6104
:105740005EE0FB68DB680133FA685268B3FBF2F194
:1057500001FB02F29A1AFB689B689A4223D1FB680C
:10576000DB680133FA685268B3FBF2F101FB02F225
:105770009A1AFB68DA60FB681A68FB68DB681A44EF
:105780007B69013BB9680B4412781A70FB680222EE
:105790001A61FB684FF0FF32DA60FB684FF0FF32AE
:1057A0009A607B6930E0FB689B68B3F1FF3F04D1EE
:1057B000FB6802221A61002326E0FB6800221A61BE
:1057C000FB68DB680133FA685268B3FBF2F101FB56
:1057D00002F29A1AFB68DA60FB681A68FB68DB68F9
:1057E0001A447B69013BB9680B4412781A707A69D4
:1057F0007B689A4201D17B6806E07B6901337B615B
:105800007A697B689A429CD918461C37BD465DF878
:10581000047B704780B487B000AFF860B9607A60ED
:105820000123FB7540E0FB689B680133FA6852680E
:10583000B3FBF2F101FB02F29A1AFB68DB689A42B1
:1058400005D1FB6801221A61FB7D013B30E0FB685A
:1058500000221A61FB689B680133FA685268B3FB47
:10586000F2F101FB02F29A1AFB689A60FB7D013BA0
:10587000BA681A44FB681968FB689B680B44127885
:105880001A70FB7D7A689A4201D17B6810E0FA7D3C
:10589000FB685B689A4204D1FB6801221A61FB7DB8
:1058A00006E0FB7D0133FB75FB7D7A689A42BAD234
:1058B00018461C37BD465DF8047B704780B485B040
:1058C00000AF78607B68DB68B3F1FF3F21D07B6875
:1058D000DA687B689B689A420CD97B685B68DAB2AD
:1058E0007B689B68D9B27B68DB68DBB2CB1ADBB222
:1058F0001344FB737B68DA687B689B689A4214D216
:105900007B689B68DAB27B68DB68DBB2D31AFB7317
:105910000BE07B681B69022B02D10023FB7304E0C0
:105920007B689B68DBB20133FB73FB7B1846143743
:10593000BD465DF8047B704780B584B000AF7860E9
:105940000BF0B4FE02467B689B78013B92FBF3F1BF
:1059500001FB03F3D31AFB730BF0A8FE02467B682E
:10596000DB78013B92FBF3F101FB03F3D31ABB732A
:1059700017E00BF09BFE02467B689B78013B92FB95
:10598000F3F101FB03F3D31AFB730BF08FFE024616
:105990007B68DB78013B92FBF3F101FB03F3D31A45
:1059A000BB73FA7BBB7B796812010A44134404334E
:1059B0001B78002BDDD1FA7BBB7B796812010A448E
:1059C0001344043301221A7000BF1037BD4680BD56
:1059D00080B487B000AF78607B6803F58053B3F87C
:1059E000A431013B7B6117E07A687B69134403F5BE
:1059F00001731B7818467A687B69134403F6D41345
:105A00001B7819467A68030113440B4404330022BF
:105A10001A707B69013B7B617B69002BE4DA7B6850
:105A200003F58053B3F8A431013B7A68134493F82B
:105A300004329AB27B6803F58053A3F8B4217B68E3
:105A400003F58053B3F8A431013B7A68134493F80B
:105A5000D4399AB27B6803F58053A3F8B6217B68EA
:105A600003F58053B3F8A431013B7A68134493F8EB
:105A700004127B6803F58053D3F8A831DAB27B684F
:105A800003F58053B3F8A431013B0A44D1B27A68DC
:105A900013440A4683F804227B6803F58053B3F865
:105AA000A431013B7A68134493F8D4197B6803F559
:105AB0008053D3F8AC31DAB27B6803F58053B3F886
:105AC000A431013B0A44D1B27A6813440A4683F8F0
:105AD000D4297B6803F58053B3F8A431013B7A687D
